{
  "_format": "hh-sol-artifact-1",
  "contractName": "EnjoyFrame",
  "sourceName": "contracts/EnjoyFrame.sol",
  "abi": [
    {
      "inputs": [
        {
          "internalType": "address",
          "name": "initialOwner",
          "type": "address"
        }
      ],
      "stateMutability": "nonpayable",
      "type": "constructor"
    },
    {
      "inputs": [
        {
          "internalType": "address",
          "name": "sender",
          "type": "address"
        },
        {
          "internalType": "uint256",
          "name": "balance",
          "type": "uint256"
        },
        {
          "internalType": "uint256",
          "name": "needed",
          "type": "uint256"
        },
        {
          "internalType": "uint256",
          "name": "tokenId",
          "type": "uint256"
        }
      ],
      "name": "ERC1155InsufficientBalance",
      "type": "error"
    },
    {
      "inputs": [
        {
          "internalType": "address",
          "name": "approver",
          "type": "address"
        }
      ],
      "name": "ERC1155InvalidApprover",
      "type": "error"
    },
    {
      "inputs": [
        {
          "internalType": "uint256",
          "name": "idsLength",
          "type": "uint256"
        },
        {
          "internalType": "uint256",
          "name": "valuesLength",
          "type": "uint256"
        }
      ],
      "name": "ERC1155InvalidArrayLength",
      "type": "error"
    },
    {
      "inputs": [
        {
          "internalType": "address",
          "name": "operator",
          "type": "address"
        }
      ],
      "name": "ERC1155InvalidOperator",
      "type": "error"
    },
    {
      "inputs": [
        {
          "internalType": "address",
          "name": "receiver",
          "type": "address"
        }
      ],
      "name": "ERC1155InvalidReceiver",
      "type": "error"
    },
    {
      "inputs": [
        {
          "internalType": "address",
          "name": "sender",
          "type": "address"
        }
      ],
      "name": "ERC1155InvalidSender",
      "type": "error"
    },
    {
      "inputs": [
        {
          "internalType": "address",
          "name": "operator",
          "type": "address"
        },
        {
          "internalType": "address",
          "name": "owner",
          "type": "address"
        }
      ],
      "name": "ERC1155MissingApprovalForAll",
      "type": "error"
    },
    {
      "inputs": [
        {
          "internalType": "address",
          "name": "owner",
          "type": "address"
        }
      ],
      "name": "OwnableInvalidOwner",
      "type": "error"
    },
    {
      "inputs": [
        {
          "internalType": "address",
          "name": "account",
          "type": "address"
        }
      ],
      "name": "OwnableUnauthorizedAccount",
      "type": "error"
    },
    {
      "anonymous": false,
      "inputs": [
        {
          "indexed": true,
          "internalType": "address",
          "name": "account",
          "type": "address"
        },
        {
          "indexed": true,
          "internalType": "address",
          "name": "operator",
          "type": "address"
        },
        {
          "indexed": false,
          "internalType": "bool",
          "name": "approved",
          "type": "bool"
        }
      ],
      "name": "ApprovalForAll",
      "type": "event"
    },
    {
      "anonymous": false,
      "inputs": [
        {
          "indexed": true,
          "internalType": "address",
          "name": "previousOwner",
          "type": "address"
        },
        {
          "indexed": true,
          "internalType": "address",
          "name": "newOwner",
          "type": "address"
        }
      ],
      "name": "OwnershipTransferred",
      "type": "event"
    },
    {
      "anonymous": false,
      "inputs": [
        {
          "indexed": true,
          "internalType": "address",
          "name": "operator",
          "type": "address"
        },
        {
          "indexed": true,
          "internalType": "address",
          "name": "from",
          "type": "address"
        },
        {
          "indexed": true,
          "internalType": "address",
          "name": "to",
          "type": "address"
        },
        {
          "indexed": false,
          "internalType": "uint256[]",
          "name": "ids",
          "type": "uint256[]"
        },
        {
          "indexed": false,
          "internalType": "uint256[]",
          "name": "values",
          "type": "uint256[]"
        }
      ],
      "name": "TransferBatch",
      "type": "event"
    },
    {
      "anonymous": false,
      "inputs": [
        {
          "indexed": true,
          "internalType": "address",
          "name": "operator",
          "type": "address"
        },
        {
          "indexed": true,
          "internalType": "address",
          "name": "from",
          "type": "address"
        },
        {
          "indexed": true,
          "internalType": "address",
          "name": "to",
          "type": "address"
        },
        {
          "indexed": false,
          "internalType": "uint256",
          "name": "id",
          "type": "uint256"
        },
        {
          "indexed": false,
          "internalType": "uint256",
          "name": "value",
          "type": "uint256"
        }
      ],
      "name": "TransferSingle",
      "type": "event"
    },
    {
      "anonymous": false,
      "inputs": [
        {
          "indexed": false,
          "internalType": "string",
          "name": "value",
          "type": "string"
        },
        {
          "indexed": true,
          "internalType": "uint256",
          "name": "id",
          "type": "uint256"
        }
      ],
      "name": "URI",
      "type": "event"
    },
    {
      "inputs": [
        {
          "internalType": "address",
          "name": "account",
          "type": "address"
        },
        {
          "internalType": "uint256",
          "name": "id",
          "type": "uint256"
        }
      ],
      "name": "balanceOf",
      "outputs": [
        {
          "internalType": "uint256",
          "name": "",
          "type": "uint256"
        }
      ],
      "stateMutability": "view",
      "type": "function"
    },
    {
      "inputs": [
        {
          "internalType": "address[]",
          "name": "accounts",
          "type": "address[]"
        },
        {
          "internalType": "uint256[]",
          "name": "ids",
          "type": "uint256[]"
        }
      ],
      "name": "balanceOfBatch",
      "outputs": [
        {
          "internalType": "uint256[]",
          "name": "",
          "type": "uint256[]"
        }
      ],
      "stateMutability": "view",
      "type": "function"
    },
    {
      "inputs": [
        {
          "internalType": "uint256",
          "name": "id",
          "type": "uint256"
        }
      ],
      "name": "exists",
      "outputs": [
        {
          "internalType": "bool",
          "name": "",
          "type": "bool"
        }
      ],
      "stateMutability": "view",
      "type": "function"
    },
    {
      "inputs": [
        {
          "internalType": "address",
          "name": "account",
          "type": "address"
        },
        {
          "internalType": "address",
          "name": "operator",
          "type": "address"
        }
      ],
      "name": "isApprovedForAll",
      "outputs": [
        {
          "internalType": "bool",
          "name": "",
          "type": "bool"
        }
      ],
      "stateMutability": "view",
      "type": "function"
    },
    {
      "inputs": [
        {
          "internalType": "address",
          "name": "account",
          "type": "address"
        },
        {
          "internalType": "uint256",
          "name": "id",
          "type": "uint256"
        },
        {
          "internalType": "uint256",
          "name": "amount",
          "type": "uint256"
        },
        {
          "internalType": "bytes",
          "name": "data",
          "type": "bytes"
        }
      ],
      "name": "mint",
      "outputs": [],
      "stateMutability": "nonpayable",
      "type": "function"
    },
    {
      "inputs": [
        {
          "internalType": "address",
          "name": "to",
          "type": "address"
        },
        {
          "internalType": "uint256[]",
          "name": "ids",
          "type": "uint256[]"
        },
        {
          "internalType": "uint256[]",
          "name": "amounts",
          "type": "uint256[]"
        },
        {
          "internalType": "bytes",
          "name": "data",
          "type": "bytes"
        }
      ],
      "name": "mintBatch",
      "outputs": [],
      "stateMutability": "nonpayable",
      "type": "function"
    },
    {
      "inputs": [],
      "name": "owner",
      "outputs": [
        {
          "internalType": "address",
          "name": "",
          "type": "address"
        }
      ],
      "stateMutability": "view",
      "type": "function"
    },
    {
      "inputs": [],
      "name": "renounceOwnership",
      "outputs": [],
      "stateMutability": "nonpayable",
      "type": "function"
    },
    {
      "inputs": [
        {
          "internalType": "address",
          "name": "from",
          "type": "address"
        },
        {
          "internalType": "address",
          "name": "to",
          "type": "address"
        },
        {
          "internalType": "uint256[]",
          "name": "ids",
          "type": "uint256[]"
        },
        {
          "internalType": "uint256[]",
          "name": "values",
          "type": "uint256[]"
        },
        {
          "internalType": "bytes",
          "name": "data",
          "type": "bytes"
        }
      ],
      "name": "safeBatchTransferFrom",
      "outputs": [],
      "stateMutability": "nonpayable",
      "type": "function"
    },
    {
      "inputs": [
        {
          "internalType": "address",
          "name": "from",
          "type": "address"
        },
        {
          "internalType": "address",
          "name": "to",
          "type": "address"
        },
        {
          "internalType": "uint256",
          "name": "id",
          "type": "uint256"
        },
        {
          "internalType": "uint256",
          "name": "value",
          "type": "uint256"
        },
        {
          "internalType": "bytes",
          "name": "data",
          "type": "bytes"
        }
      ],
      "name": "safeTransferFrom",
      "outputs": [],
      "stateMutability": "nonpayable",
      "type": "function"
    },
    {
      "inputs": [
        {
          "internalType": "address",
          "name": "operator",
          "type": "address"
        },
        {
          "internalType": "bool",
          "name": "approved",
          "type": "bool"
        }
      ],
      "name": "setApprovalForAll",
      "outputs": [],
      "stateMutability": "nonpayable",
      "type": "function"
    },
    {
      "inputs": [
        {
          "internalType": "string",
          "name": "newuri",
          "type": "string"
        }
      ],
      "name": "setURI",
      "outputs": [],
      "stateMutability": "nonpayable",
      "type": "function"
    },
    {
      "inputs": [
        {
          "internalType": "bytes4",
          "name": "interfaceId",
          "type": "bytes4"
        }
      ],
      "name": "supportsInterface",
      "outputs": [
        {
          "internalType": "bool",
          "name": "",
          "type": "bool"
        }
      ],
      "stateMutability": "view",
      "type": "function"
    },
    {
      "inputs": [],
      "name": "totalSupply",
      "outputs": [
        {
          "internalType": "uint256",
          "name": "",
          "type": "uint256"
        }
      ],
      "stateMutability": "view",
      "type": "function"
    },
    {
      "inputs": [
        {
          "internalType": "uint256",
          "name": "id",
          "type": "uint256"
        }
      ],
      "name": "totalSupply",
      "outputs": [
        {
          "internalType": "uint256",
          "name": "",
          "type": "uint256"
        }
      ],
      "stateMutability": "view",
      "type": "function"
    },
    {
      "inputs": [
        {
          "internalType": "address",
          "name": "newOwner",
          "type": "address"
        }
      ],
      "name": "transferOwnership",
      "outputs": [],
      "stateMutability": "nonpayable",
      "type": "function"
    },
    {
      "inputs": [
        {
          "internalType": "uint256",
          "name": "",
          "type": "uint256"
        }
      ],
      "name": "uri",
      "outputs": [
        {
          "internalType": "string",
          "name": "",
          "type": "string"
        }
      ],
      "stateMutability": "view",
      "type": "function"
    }
  ],
  "bytecode": "0x60806040523480156200001157600080fd5b50604051620030de380380620030de83398181016040528101906200003791906200022d565b80604051806020016040528060008152506200005981620000e860201b60201c565b50600073ffffffffffffffffffffffffffffffffffffffff168173ffffffffffffffffffffffffffffffffffffffff1603620000cf5760006040517f1e4fbdf7000000000000000000000000000000000000000000000000000000008152600401620000c6919062000270565b60405180910390fd5b620000e081620000fd60201b60201c565b5050620005ee565b8060029081620000f9919062000507565b5050565b6000600360009054906101000a900473ffffffffffffffffffffffffffffffffffffffff16905081600360006101000a81548173ffffffffffffffffffffffffffffffffffffffff021916908373ffffffffffffffffffffffffffffffffffffffff1602179055508173ffffffffffffffffffffffffffffffffffffffff168173ffffffffffffffffffffffffffffffffffffffff167f8be0079c531659141344cd1fd0a4f28419497f9722a3daafe3b4186f6b6457e060405160405180910390a35050565b600080fd5b600073ffffffffffffffffffffffffffffffffffffffff82169050919050565b6000620001f582620001c8565b9050919050565b6200020781620001e8565b81146200021357600080fd5b50565b6000815190506200022781620001fc565b92915050565b600060208284031215620002465762000245620001c3565b5b6000620002568482850162000216565b91505092915050565b6200026a81620001e8565b82525050565b60006020820190506200028760008301846200025f565b92915050565b600081519050919050565b7f4e487b7100000000000000000000000000000000000000000000000000000000600052604160045260246000fd5b7f4e487b7100000000000000000000000000000000000000000000000000000000600052602260045260246000fd5b600060028204905060018216806200030f57607f821691505b602082108103620003255762000324620002c7565b5b50919050565b60008190508160005260206000209050919050565b60006020601f8301049050919050565b600082821b905092915050565b6000600883026200038f7fffffffffffffffffffffffffffffffffffffffffffffffffffffffffffffffff8262000350565b6200039b868362000350565b95508019841693508086168417925050509392505050565b6000819050919050565b6000819050919050565b6000620003e8620003e2620003dc84620003b3565b620003bd565b620003b3565b9050919050565b6000819050919050565b6200040483620003c7565b6200041c6200041382620003ef565b8484546200035d565b825550505050565b600090565b6200043362000424565b62000440818484620003f9565b505050565b5b8181101562000468576200045c60008262000429565b60018101905062000446565b5050565b601f821115620004b75762000481816200032b565b6200048c8462000340565b810160208510156200049c578190505b620004b4620004ab8562000340565b83018262000445565b50505b505050565b600082821c905092915050565b6000620004dc60001984600802620004bc565b1980831691505092915050565b6000620004f78383620004c9565b9150826002028217905092915050565b62000512826200028d565b67ffffffffffffffff8111156200052e576200052d62000298565b5b6200053a8254620002f6565b620005478282856200046c565b600060209050601f8311600181146200057f57600084156200056a578287015190505b620005768582620004e9565b865550620005e6565b601f1984166200058f866200032b565b60005b82811015620005b95784890151825560018201915060208501945060208101905062000592565b86831015620005d95784890151620005d5601f891682620004c9565b8355505b6001600288020188555050505b505050505050565b612ae080620005fe6000396000f3fe608060405234801561001057600080fd5b506004361061010a5760003560e01c80634f558e79116100a2578063a22cb46511610071578063a22cb465146102b5578063bd85b039146102d1578063e985e9c514610301578063f242432a14610331578063f2fde38b1461034d5761010a565b80634f558e7914610241578063715018a614610271578063731133e91461027b5780638da5cb5b146102975761010a565b806318160ddd116100de57806318160ddd146101bb5780631f7fdffa146101d95780632eb2c2d6146101f55780634e1273f4146102115761010a565b8062fdd58e1461010f57806301ffc9a71461013f57806302fe53051461016f5780630e89341c1461018b575b600080fd5b61012960048036038101906101249190611a66565b610369565b6040516101369190611ab5565b60405180910390f35b61015960048036038101906101549190611b28565b6103c3565b6040516101669190611b70565b60405180910390f35b61018960048036038101906101849190611cd1565b6104a5565b005b6101a560048036038101906101a09190611d1a565b6104b9565b6040516101b29190611dc6565b60405180910390f35b6101c361054d565b6040516101d09190611ab5565b60405180910390f35b6101f360048036038101906101ee9190611f51565b610557565b005b61020f600480360381019061020a919061200c565b610571565b005b61022b6004803603810190610226919061219e565b610619565b60405161023891906122d4565b60405180910390f35b61025b60048036038101906102569190611d1a565b610722565b6040516102689190611b70565b60405180910390f35b610279610736565b005b610295600480360381019061029091906122f6565b61074a565b005b61029f610764565b6040516102ac9190612388565b60405180910390f35b6102cf60048036038101906102ca91906123cf565b61078e565b005b6102eb60048036038101906102e69190611d1a565b6107a4565b6040516102f89190611ab5565b60405180910390f35b61031b6004803603810190610316919061240f565b6107c1565b6040516103289190611b70565b60405180910390f35b61034b6004803603810190610346919061244f565b610855565b005b610367600480360381019061036291906124e6565b6108fd565b005b600080600083815260200190815260200160002060008473ffffffffffffffffffffffffffffffffffffffff1673ffffffffffffffffffffffffffffffffffffffff16815260200190815260200160002054905092915050565b60007fd9b67a26000000000000000000000000000000000000000000000000000000007bffffffffffffffffffffffffffffffffffffffffffffffffffffffff1916827bffffffffffffffffffffffffffffffffffffffffffffffffffffffff1916148061048e57507f0e89341c000000000000000000000000000000000000000000000000000000007bffffffffffffffffffffffffffffffffffffffffffffffffffffffff1916827bffffffffffffffffffffffffffffffffffffffffffffffffffffffff1916145b8061049e575061049d82610983565b5b9050919050565b6104ad6109ed565b6104b681610a74565b50565b6060600280546104c890612542565b80601f01602080910402602001604051908101604052809291908181526020018280546104f490612542565b80156105415780601f1061051657610100808354040283529160200191610541565b820191906000526020600020905b81548152906001019060200180831161052457829003601f168201915b50505050509050919050565b6000600554905090565b61055f6109ed565b61056b84848484610a87565b50505050565b600061057b610b0d565b90508073ffffffffffffffffffffffffffffffffffffffff168673ffffffffffffffffffffffffffffffffffffffff16141580156105c057506105be86826107c1565b155b156106045780866040517fe237d9220000000000000000000000000000000000000000000000000000000081526004016105fb929190612573565b60405180910390fd5b6106118686868686610b15565b505050505050565b6060815183511461066557815183516040517f5b05999100000000000000000000000000000000000000000000000000000000815260040161065c92919061259c565b60405180910390fd5b6000835167ffffffffffffffff81111561068257610681611ba6565b5b6040519080825280602002602001820160405280156106b05781602001602082028036833780820191505090505b50905060005b8451811015610717576106ed6106d58287610c0d90919063ffffffff16565b6106e88387610c2190919063ffffffff16565b610369565b828281518110610700576106ff6125c5565b5b6020026020010181815250508060010190506106b6565b508091505092915050565b60008061072e836107a4565b119050919050565b61073e6109ed565b6107486000610c35565b565b6107526109ed565b61075e84848484610cfb565b50505050565b6000600360009054906101000a900473ffffffffffffffffffffffffffffffffffffffff16905090565b6107a0610799610b0d565b8383610d94565b5050565b600060046000838152602001908152602001600020549050919050565b6000600160008473ffffffffffffffffffffffffffffffffffffffff1673ffffffffffffffffffffffffffffffffffffffff16815260200190815260200160002060008373ffffffffffffffffffffffffffffffffffffffff1673ffffffffffffffffffffffffffffffffffffffff16815260200190815260200160002060009054906101000a900460ff16905092915050565b600061085f610b0d565b90508073ffffffffffffffffffffffffffffffffffffffff168673ffffffffffffffffffffffffffffffffffffffff16141580156108a457506108a286826107c1565b155b156108e85780866040517fe237d9220000000000000000000000000000000000000000000000000000000081526004016108df929190612573565b60405180910390fd5b6108f58686868686610f04565b505050505050565b6109056109ed565b600073ffffffffffffffffffffffffffffffffffffffff168173ffffffffffffffffffffffffffffffffffffffff16036109775760006040517f1e4fbdf700000000000000000000000000000000000000000000000000000000815260040161096e9190612388565b60405180910390fd5b61098081610c35565b50565b60007f01ffc9a7000000000000000000000000000000000000000000000000000000007bffffffffffffffffffffffffffffffffffffffffffffffffffffffff1916827bffffffffffffffffffffffffffffffffffffffffffffffffffffffff1916149050919050565b6109f5610b0d565b73ffffffffffffffffffffffffffffffffffffffff16610a13610764565b73ffffffffffffffffffffffffffffffffffffffff1614610a7257610a36610b0d565b6040517f118cdaa7000000000000000000000000000000000000000000000000000000008152600401610a699190612388565b60405180910390fd5b565b8060029081610a8391906127a0565b5050565b600073ffffffffffffffffffffffffffffffffffffffff168473ffffffffffffffffffffffffffffffffffffffff1603610af95760006040517f57f447ce000000000000000000000000000000000000000000000000000000008152600401610af09190612388565b60405180910390fd5b610b0760008585858561100f565b50505050565b600033905090565b600073ffffffffffffffffffffffffffffffffffffffff168473ffffffffffffffffffffffffffffffffffffffff1603610b875760006040517f57f447ce000000000000000000000000000000000000000000000000000000008152600401610b7e9190612388565b60405180910390fd5b600073ffffffffffffffffffffffffffffffffffffffff168573ffffffffffffffffffffffffffffffffffffffff1603610bf95760006040517f01a83514000000000000000000000000000000000000000000000000000000008152600401610bf09190612388565b60405180910390fd5b610c06858585858561100f565b5050505050565b600060208202602084010151905092915050565b600060208202602084010151905092915050565b6000600360009054906101000a900473ffffffffffffffffffffffffffffffffffffffff16905081600360006101000a81548173ffffffffffffffffffffffffffffffffffffffff021916908373ffffffffffffffffffffffffffffffffffffffff1602179055508173ffffffffffffffffffffffffffffffffffffffff168173ffffffffffffffffffffffffffffffffffffffff167f8be0079c531659141344cd1fd0a4f28419497f9722a3daafe3b4186f6b6457e060405160405180910390a35050565b600073ffffffffffffffffffffffffffffffffffffffff168473ffffffffffffffffffffffffffffffffffffffff1603610d6d5760006040517f57f447ce000000000000000000000000000000000000000000000000000000008152600401610d649190612388565b60405180910390fd5b600080610d7a85856110c1565b91509150610d8c60008784848761100f565b505050505050565b600073ffffffffffffffffffffffffffffffffffffffff168273ffffffffffffffffffffffffffffffffffffffff1603610e065760006040517fced3e100000000000000000000000000000000000000000000000000000000008152600401610dfd9190612388565b60405180910390fd5b80600160008573ffffffffffffffffffffffffffffffffffffffff1673ffffffffffffffffffffffffffffffffffffffff16815260200190815260200160002060008473ffffffffffffffffffffffffffffffffffffffff1673ffffffffffffffffffffffffffffffffffffffff16815260200190815260200160002060006101000a81548160ff0219169083151502179055508173ffffffffffffffffffffffffffffffffffffffff168373ffffffffffffffffffffffffffffffffffffffff167f17307eab39ab6107e8899845ad3d59bd9653f200f220920489ca2b5937696c3183604051610ef79190611b70565b60405180910390a3505050565b600073ffffffffffffffffffffffffffffffffffffffff168473ffffffffffffffffffffffffffffffffffffffff1603610f765760006040517f57f447ce000000000000000000000000000000000000000000000000000000008152600401610f6d9190612388565b60405180910390fd5b600073ffffffffffffffffffffffffffffffffffffffff168573ffffffffffffffffffffffffffffffffffffffff1603610fe85760006040517f01a83514000000000000000000000000000000000000000000000000000000008152600401610fdf9190612388565b60405180910390fd5b600080610ff585856110c1565b91509150611006878784848761100f565b50505050505050565b61101b858585856110f1565b600073ffffffffffffffffffffffffffffffffffffffff168473ffffffffffffffffffffffffffffffffffffffff16146110ba576000611059610b0d565b905060018451036110a957600061107a600086610c2190919063ffffffff16565b90506000611092600086610c2190919063ffffffff16565b90506110a2838989858589611103565b50506110b8565b6110b78187878787876112b7565b5b505b5050505050565b60608060405191506001825283602083015260408201905060018152826020820152604081016040529250929050565b6110fd8484848461146b565b50505050565b60008473ffffffffffffffffffffffffffffffffffffffff163b11156112af578373ffffffffffffffffffffffffffffffffffffffff1663f23a6e6187878686866040518663ffffffff1660e01b81526004016111649594939291906128c7565b6020604051808303816000875af19250505080156111a057506040513d601f19601f8201168201806040525081019061119d9190612936565b60015b611224573d80600081146111d0576040519150601f19603f3d011682016040523d82523d6000602084013e6111d5565b606091505b50600081510361121c57846040517f57f447ce0000000000000000000000000000000000000000000000000000000081526004016112139190612388565b60405180910390fd5b805181602001fd5b63f23a6e6160e01b7bffffffffffffffffffffffffffffffffffffffffffffffffffffffff1916817bffffffffffffffffffffffffffffffffffffffffffffffffffffffff1916146112ad57846040517f57f447ce0000000000000000000000000000000000000000000000000000000081526004016112a49190612388565b60405180910390fd5b505b505050505050565b60008473ffffffffffffffffffffffffffffffffffffffff163b1115611463578373ffffffffffffffffffffffffffffffffffffffff1663bc197c8187878686866040518663ffffffff1660e01b8152600401611318959493929190612963565b6020604051808303816000875af192505050801561135457506040513d601f19601f820116820180604052508101906113519190612936565b60015b6113d8573d8060008114611384576040519150601f19603f3d011682016040523d82523d6000602084013e611389565b606091505b5060008151036113d057846040517f57f447ce0000000000000000000000000000000000000000000000000000000081526004016113c79190612388565b60405180910390fd5b805181602001fd5b63bc197c8160e01b7bffffffffffffffffffffffffffffffffffffffffffffffffffffffff1916817bffffffffffffffffffffffffffffffffffffffffffffffffffffffff19161461146157846040517f57f447ce0000000000000000000000000000000000000000000000000000000081526004016114589190612388565b60405180910390fd5b505b505050505050565b61147784848484611616565b600073ffffffffffffffffffffffffffffffffffffffff168473ffffffffffffffffffffffffffffffffffffffff1603611551576000805b83518110156115355760008382815181106114cd576114cc6125c5565b5b6020026020010151905080600460008785815181106114ef576114ee6125c5565b5b60200260200101518152602001908152602001600020600082825461151491906129fa565b92505081905550808361152791906129fa565b9250508060010190506114af565b50806005600082825461154891906129fa565b92505081905550505b600073ffffffffffffffffffffffffffffffffffffffff168373ffffffffffffffffffffffffffffffffffffffff1603611610576000805b83518110156115fd5760008382815181106115a7576115a66125c5565b5b6020026020010151905080600460008785815181106115c9576115c86125c5565b5b6020026020010151815260200190815260200160002060008282540392505081905550808301925050806001019050611589565b5080600560008282540392505081905550505b50505050565b805182511461166057815181516040517f5b05999100000000000000000000000000000000000000000000000000000000815260040161165792919061259c565b60405180910390fd5b600061166a610b0d565b905060005b835181101561187957600061168d8286610c2190919063ffffffff16565b905060006116a48386610c2190919063ffffffff16565b9050600073ffffffffffffffffffffffffffffffffffffffff168873ffffffffffffffffffffffffffffffffffffffff16146117d157600080600084815260200190815260200160002060008a73ffffffffffffffffffffffffffffffffffffffff1673ffffffffffffffffffffffffffffffffffffffff1681526020019081526020016000205490508181101561177957888183856040517f03dee4c50000000000000000000000000000000000000000000000000000000081526004016117709493929190612a2e565b60405180910390fd5b81810360008085815260200190815260200160002060008b73ffffffffffffffffffffffffffffffffffffffff1673ffffffffffffffffffffffffffffffffffffffff16815260200190815260200160002081905550505b600073ffffffffffffffffffffffffffffffffffffffff168773ffffffffffffffffffffffffffffffffffffffff161461186c578060008084815260200190815260200160002060008973ffffffffffffffffffffffffffffffffffffffff1673ffffffffffffffffffffffffffffffffffffffff168152602001908152602001600020600082825461186491906129fa565b925050819055505b505080600101905061166f565b506001835103611938576000611899600085610c2190919063ffffffff16565b905060006118b1600085610c2190919063ffffffff16565b90508573ffffffffffffffffffffffffffffffffffffffff168773ffffffffffffffffffffffffffffffffffffffff168473ffffffffffffffffffffffffffffffffffffffff167fc3d58168c5ae7397731d063d5bbf3d657854427343f4c083240f7aacaa2d0f62858560405161192992919061259c565b60405180910390a450506119b7565b8373ffffffffffffffffffffffffffffffffffffffff168573ffffffffffffffffffffffffffffffffffffffff168273ffffffffffffffffffffffffffffffffffffffff167f4a39dc06d4c0dbc64b70af90fd698a233a518aa5d07e595d983b8c0526c8f7fb86866040516119ae929190612a73565b60405180910390a45b5050505050565b6000604051905090565b600080fd5b600080fd5b600073ffffffffffffffffffffffffffffffffffffffff82169050919050565b60006119fd826119d2565b9050919050565b611a0d816119f2565b8114611a1857600080fd5b50565b600081359050611a2a81611a04565b92915050565b6000819050919050565b611a4381611a30565b8114611a4e57600080fd5b50565b600081359050611a6081611a3a565b92915050565b60008060408385031215611a7d57611a7c6119c8565b5b6000611a8b85828601611a1b565b9250506020611a9c85828601611a51565b9150509250929050565b611aaf81611a30565b82525050565b6000602082019050611aca6000830184611aa6565b92915050565b60007fffffffff0000000000000000000000000000000000000000000000000000000082169050919050565b611b0581611ad0565b8114611b1057600080fd5b50565b600081359050611b2281611afc565b92915050565b600060208284031215611b3e57611b3d6119c8565b5b6000611b4c84828501611b13565b91505092915050565b60008115159050919050565b611b6a81611b55565b82525050565b6000602082019050611b856000830184611b61565b92915050565b600080fd5b600080fd5b6000601f19601f8301169050919050565b7f4e487b7100000000000000000000000000000000000000000000000000000000600052604160045260246000fd5b611bde82611b95565b810181811067ffffffffffffffff82111715611bfd57611bfc611ba6565b5b80604052505050565b6000611c106119be565b9050611c1c8282611bd5565b919050565b600067ffffffffffffffff821115611c3c57611c3b611ba6565b5b611c4582611b95565b9050602081019050919050565b82818337600083830152505050565b6000611c74611c6f84611c21565b611c06565b905082815260208101848484011115611c9057611c8f611b90565b5b611c9b848285611c52565b509392505050565b600082601f830112611cb857611cb7611b8b565b5b8135611cc8848260208601611c61565b91505092915050565b600060208284031215611ce757611ce66119c8565b5b600082013567ffffffffffffffff811115611d0557611d046119cd565b5b611d1184828501611ca3565b91505092915050565b600060208284031215611d3057611d2f6119c8565b5b6000611d3e84828501611a51565b91505092915050565b600081519050919050565b600082825260208201905092915050565b60005b83811015611d81578082015181840152602081019050611d66565b60008484015250505050565b6000611d9882611d47565b611da28185611d52565b9350611db2818560208601611d63565b611dbb81611b95565b840191505092915050565b60006020820190508181036000830152611de08184611d8d565b905092915050565b600067ffffffffffffffff821115611e0357611e02611ba6565b5b602082029050602081019050919050565b600080fd5b6000611e2c611e2784611de8565b611c06565b90508083825260208201905060208402830185811115611e4f57611e4e611e14565b5b835b81811015611e785780611e648882611a51565b845260208401935050602081019050611e51565b5050509392505050565b600082601f830112611e9757611e96611b8b565b5b8135611ea7848260208601611e19565b91505092915050565b600067ffffffffffffffff821115611ecb57611eca611ba6565b5b611ed482611b95565b9050602081019050919050565b6000611ef4611eef84611eb0565b611c06565b905082815260208101848484011115611f1057611f0f611b90565b5b611f1b848285611c52565b509392505050565b600082601f830112611f3857611f37611b8b565b5b8135611f48848260208601611ee1565b91505092915050565b60008060008060808587031215611f6b57611f6a6119c8565b5b6000611f7987828801611a1b565b945050602085013567ffffffffffffffff811115611f9a57611f996119cd565b5b611fa687828801611e82565b935050604085013567ffffffffffffffff811115611fc757611fc66119cd565b5b611fd387828801611e82565b925050606085013567ffffffffffffffff811115611ff457611ff36119cd565b5b61200087828801611f23565b91505092959194509250565b600080600080600060a08688031215612028576120276119c8565b5b600061203688828901611a1b565b955050602061204788828901611a1b565b945050604086013567ffffffffffffffff811115612068576120676119cd565b5b61207488828901611e82565b935050606086013567ffffffffffffffff811115612095576120946119cd565b5b6120a188828901611e82565b925050608086013567ffffffffffffffff8111156120c2576120c16119cd565b5b6120ce88828901611f23565b9150509295509295909350565b600067ffffffffffffffff8211156120f6576120f5611ba6565b5b602082029050602081019050919050565b600061211a612115846120db565b611c06565b9050808382526020820190506020840283018581111561213d5761213c611e14565b5b835b8181101561216657806121528882611a1b565b84526020840193505060208101905061213f565b5050509392505050565b600082601f83011261218557612184611b8b565b5b8135612195848260208601612107565b91505092915050565b600080604083850312156121b5576121b46119c8565b5b600083013567ffffffffffffffff8111156121d3576121d26119cd565b5b6121df85828601612170565b925050602083013567ffffffffffffffff811115612200576121ff6119cd565b5b61220c85828601611e82565b9150509250929050565b600081519050919050565b600082825260208201905092915050565b6000819050602082019050919050565b61224b81611a30565b82525050565b600061225d8383612242565b60208301905092915050565b6000602082019050919050565b600061228182612216565b61228b8185612221565b935061229683612232565b8060005b838110156122c75781516122ae8882612251565b97506122b983612269565b92505060018101905061229a565b5085935050505092915050565b600060208201905081810360008301526122ee8184612276565b905092915050565b600080600080608085870312156123105761230f6119c8565b5b600061231e87828801611a1b565b945050602061232f87828801611a51565b935050604061234087828801611a51565b925050606085013567ffffffffffffffff811115612361576123606119cd565b5b61236d87828801611f23565b91505092959194509250565b612382816119f2565b82525050565b600060208201905061239d6000830184612379565b92915050565b6123ac81611b55565b81146123b757600080fd5b50565b6000813590506123c9816123a3565b92915050565b600080604083850312156123e6576123e56119c8565b5b60006123f485828601611a1b565b9250506020612405858286016123ba565b9150509250929050565b60008060408385031215612426576124256119c8565b5b600061243485828601611a1b565b925050602061244585828601611a1b565b9150509250929050565b600080600080600060a0868803121561246b5761246a6119c8565b5b600061247988828901611a1b565b955050602061248a88828901611a1b565b945050604061249b88828901611a51565b93505060606124ac88828901611a51565b925050608086013567ffffffffffffffff8111156124cd576124cc6119cd565b5b6124d988828901611f23565b9150509295509295909350565b6000602082840312156124fc576124fb6119c8565b5b600061250a84828501611a1b565b91505092915050565b7f4e487b7100000000000000000000000000000000000000000000000000000000600052602260045260246000fd5b6000600282049050600182168061255a57607f821691505b60208210810361256d5761256c612513565b5b50919050565b60006040820190506125886000830185612379565b6125956020830184612379565b9392505050565b60006040820190506125b16000830185611aa6565b6125be6020830184611aa6565b9392505050565b7f4e487b7100000000000000000000000000000000000000000000000000000000600052603260045260246000fd5b60008190508160005260206000209050919050565b60006020601f8301049050919050565b600082821b905092915050565b6000600883026126567fffffffffffffffffffffffffffffffffffffffffffffffffffffffffffffffff82612619565b6126608683612619565b95508019841693508086168417925050509392505050565b6000819050919050565b600061269d61269861269384611a30565b612678565b611a30565b9050919050565b6000819050919050565b6126b783612682565b6126cb6126c3826126a4565b848454612626565b825550505050565b600090565b6126e06126d3565b6126eb8184846126ae565b505050565b5b8181101561270f576127046000826126d8565b6001810190506126f1565b5050565b601f82111561275457612725816125f4565b61272e84612609565b8101602085101561273d578190505b61275161274985612609565b8301826126f0565b50505b505050565b600082821c905092915050565b600061277760001984600802612759565b1980831691505092915050565b60006127908383612766565b9150826002028217905092915050565b6127a982611d47565b67ffffffffffffffff8111156127c2576127c1611ba6565b5b6127cc8254612542565b6127d7828285612713565b600060209050601f83116001811461280a57600084156127f8578287015190505b6128028582612784565b86555061286a565b601f198416612818866125f4565b60005b828110156128405784890151825560018201915060208501945060208101905061281b565b8683101561285d5784890151612859601f891682612766565b8355505b6001600288020188555050505b505050505050565b600081519050919050565b600082825260208201905092915050565b600061289982612872565b6128a3818561287d565b93506128b3818560208601611d63565b6128bc81611b95565b840191505092915050565b600060a0820190506128dc6000830188612379565b6128e96020830187612379565b6128f66040830186611aa6565b6129036060830185611aa6565b8181036080830152612915818461288e565b90509695505050505050565b60008151905061293081611afc565b92915050565b60006020828403121561294c5761294b6119c8565b5b600061295a84828501612921565b91505092915050565b600060a0820190506129786000830188612379565b6129856020830187612379565b81810360408301526129978186612276565b905081810360608301526129ab8185612276565b905081810360808301526129bf818461288e565b90509695505050505050565b7f4e487b7100000000000000000000000000000000000000000000000000000000600052601160045260246000fd5b6000612a0582611a30565b9150612a1083611a30565b9250828201905080821115612a2857612a276129cb565b5b92915050565b6000608082019050612a436000830187612379565b612a506020830186611aa6565b612a5d6040830185611aa6565b612a6a6060830184611aa6565b95945050505050565b60006040820190508181036000830152612a8d8185612276565b90508181036020830152612aa18184612276565b9050939250505056fea26469706673582212208cf713a1d12a139762ff95168ba8e7185d9697eef739d8c6f900ed562215fd2264736f6c63430008180033",
  "linkReferences": {},
  "deployedLinkReferences": {}
}